:100000000C94EE000C940D010C940D010C940D0158
:100010000C940D010C940D010C940D010C940D0128
:100020000C940D010C940D010C940D010C940D0118
:100030000C940D010C940D010C940D010C940D0108
:100040000C940D010C940D010C940D010C940D01F8
:100050000C940D010C940D010C940D010C940D01E8
:100060000C940D010C940D010C940D010C940D01D8
:100070000C940D010C940D010C940D010C940D01C8
:100080000C940D010C940D010C940D016E616E0029
:10009000696E66006364696E6F70737578585B652E
:1000A000666745464700616E006E66696E697479E1
:1000B00000CDCCCC3D0AD7233C17B7D13877CC2B19
:1000C000329595E6241FB14F0A000020410000C878
:1000D0004200401C4620BCBE4CCA1B0E5AAEC59DF9
:1000E0007400407A10F35A00A0724E18090010A54F
:1000F000D4E80000E87648170000E40B5402000042
:10010000CA9A3B000000E1F50500008096980000C7
:100110000040420F000000A08601000000102700F0
:10012000000000E803000000006400000000000A76
:1001300000000000000100000000002C76D888DCE0
:10014000674F0823DFC1DFAE59E1B1B796E5E3E4BD
:1001500053C63AE651997696E8E6C28426EB898C36
:100160009B62ED407C6FFCEFBC9C9F40F2BAA56F98
:10017000A5F490055A2AF75C936B6CF9676DC11B67
:10018000FCE0E40D47FEF520E6B500D0ED902E032F
:1001900000943577050080841E080000204E0A0078
:1001A0000000C80C333333330F986E12831141EFC4
:1001B0008D2114893BE65516CFFEE6DB18D1844B22
:1001C000381BF77C1D901DA4BBE424203284725E92
:1001D000228100C9F124ECA1E53D270011241FBEB6
:1001E000CFEFD0E1DEBFCDBF12E0A0E0B1E0E2E7AB
:1001F000F3E200E00BBF02C007900D92AA32B107F4
:10020000D9F712E0AAE2B2E001C01D92A133B10712
:10021000E1F70E941D010C94B7110C940000282FE7
:1002200081E060EE45E00E947901089589EC60EE7E
:1002300045E027E00E94380108951F930E947A024A
:1002400089EC60EE45E027E00E94380181E060EE35
:1002500045E021E00E94790180E091E00E940711D1
:100260000E94440410E01F5F812F0E943104FBCFE5
:10027000382F922F885C8730D0F5483010F082E01C
:1002800008953B3CC9F03C3C38F4393C61F03A3CC1
:1002900080F4383C61F50AC03D3CA1F03D3C78F06B
:1002A0003E3C29F512C0E7E3F0E011C0EAE3F0E0DC
:1002B0000EC0E4E3F0E00BC0E1E3F0E008C0E2E2EE
:1002C000F0E005C0E1E6F0E002C0E4E6F0E0208105
:1002D000862F80952823892F90E002C0880F991FD0
:1002E0004A95E2F76823262B208380E0089581E079
:1002F0000895922F8830C0F5483010F082E00895BC
:100300008330B9F0843028F4813051F0823070F4B9
:100310000AC08530A1F0853078F0863029F512C00A
:10032000E8E3F0E011C0EBE3F0E00EC0E5E3F0E05D
:100330000BC0E2E3F0E008C0E3E2F0E005C0E2E673
:10034000F0E002C0E5E6F0E02081862F80952823CA
:10035000892F90E002C0880F991F4A95E2F7682321
:10036000262B208380E0089581E00895982FD901FD
:1003700084568730A8F5483010F082E0089597360B
:10038000C9F0983638F4953661F0963680F4943694
:1003900039F50AC09936A1F0993678F09A3601F508
:1003A00012C0E6E3F0E011C0E9E3F0E00EC0E3E3E1
:1003B000F0E00BC0E0E3F0E008C0E1E2F0E005C0EF
:1003C000E0E2F0E002C0E3E6F0E08081862390E026
:1003D00002C0959587954A95E2F78C9380E0089541
:1003E00081E008958FB9779BFECF8FB10895982F44
:1003F000885C833010F081E00895483010F082E08E
:100400000895983C71F48DB130E002C0220F331F83
:100410004A95E2F7962F922360958623982B9DB9F3
:1004200002C0993C11F080E008958EB130E002C026
:10043000220F331F4A95E2F7962F92236095862369
:10044000982B9EB980E00895833010F051E01AC0D7
:10045000882341F46FB9779BFECF8FB1769B02C0A2
:1004600054E001C050E0F90190E00AC080818FB9EA
:10047000779BFECF8FB18083769954E09F5F319652
:100480009417A0F3852F0895833010F081E008952C
:10049000882331F0F901C901840F911DAC010BC013
:1004A0006FB9779BFECF8FB1F5CF80818FB9779BE6
:1004B000FECF8FB18193E417F507B9F780E0089577
:1004C0001F93182F8A3019F48DE00E9460025D9B03
:1004D000FECF1CB980E090E01F9108951F93BC01EE
:1004E0005F9BFECF1CB1812F0E946002812F90E0A4
:1004F0001F9108951092900081E189B98AB18861B5
:100500008AB9E5E9F0E080818660808383E191E04B
:1005100090932E0280932D0290932C0280932B02B5
:1005200080E0089584E980937400089584EA8093BC
:1005300074008091740087FFFCCF80917100887FE8
:10054000883011F480E0089584E98093740081E09C
:10055000089584E980937400089584EA8093740078
:100560008091740087FFFCCF80917100887F80317B
:1005700011F480E0089584E98093740082E0089586
:1005800090E0880F991F8093730084E88093740033
:100590008091740087FFFCCF80917100887F883143
:1005A00019F084E9809374000895880F8F5F809319
:1005B000730084E8809374008091740087FFFCCFFF
:1005C00080917100887F803419F084E980937400F1
:1005D00008958093730084E8809374008091740080
:1005E00087FFFCCF80917100887F883219F084E901
:1005F00080937400089584EC80937400809174005B
:1006000087FFFCCF80917100887F803519F084E9E5
:100610008093740080917300089584E8809374003F
:100620008091740087FFFCCF80917100887F8835AE
:1006300019F084E9809374000895FF920F931F933B
:10064000182F062FF42E0E949602812F0E94C002BE
:10065000802F0E94E9028F2D0E94E90284E9809395
:1006600074001F910F91FF9008950F931F93082F0F
:10067000162F0E949602802F0E94C002812F0E9496
:10068000E9020E94AD02802F0E94D5020E94FB0267
:10069000182F0E940D0384E980937400812F1F910D
:1006A0000F910895809370000895EF92FF920F9339
:1006B0001F93182F062FF72EE42E0E9496028130EA
:1006C00009F441C0812F90E0880F991F90708093AA
:1006D000730084E8809374008091740087FFFCCFDE
:1006E00080917100887F883139F4802F9F2D9C0183
:1006F000F90190E024E81AC084E98093740083E053
:1007000022C08081809373002093740080917400D4
:1007100087FFFCCF809171003196887F883229F065
:1007200084E98093740084E00EC09F5F9E1548F3B7
:1007300081E08E1520F484E98093740003C081E089
:1007400080932A0280E01F910F91FF90EF9008950F
:100750000F931F93CF93DF93082FEB01142F8091FA
:100760002A02813041F40E94AD02823009F474C043
:1007700010922A0202C00E949602813009F46CC0D5
:10078000802F90E0880F991F81608093730084E828
:10079000809374008091740087FFFCCF809171007A
:1007A000887F803429F084E98093740085E054C008
:1007B0001230D0F140E0212F30E02150304054EC95
:1007C00017C0509374008091740087FFFCCF809114
:1007D0007100887F803529F084E98093740086E079
:1007E0003BC080917300FE01E40FF11D80834F5FD9
:1007F000842F90E08217930724F384E88093740099
:100800008091740087FFFCCF80917100887F8835CC
:1008100029F084E98093740087E01EC08091730002
:10082000C10FD11D219713C084E88093740080917B
:10083000740087FFFCCF80917100887F883529F094
:1008400084E98093740088E007C0809173008883F6
:1008500084E98093740080E0DF91CF911F910F9124
:100860000895982F80919B0085FFFCCF90939C006A
:1008700083EB92E00197F1F7089580919B0087FF49
:10088000FCCF80919C0008951092980081E18093A4
:100890009900EAE9F0E0808188618083EDE9F0E089
:1008A0008081866080830895A0E2B0E0EAE5F4E00C
:1008B0000C94590F69837A838B839C832D833E83A9
:1008C0004F835887CE010196BE01675F7F4F0E941C
:1008D000EB06CE010596BE016F5E7F4F0E94EB06D0
:1008E0009985923088F089898230C8F0943019F463
:1008F000823051F404C0843029F4923081F481E2D2
:1009000091E0C6C0923049F420E09A858A89981314
:1009100021E02A87CE010996BBC0823049F420E04D
:100920009A858A89981321E02A8BCE014196B0C01E
:100930002D843E844F8458886D887E888F88988C5B
:10094000EE24FF248701AA24BB24650140E050E087
:1009500060E070E0E0E0F0E0C10181709070892B10
:10096000E9F0E60CF71C081D191D9A01AB012A0DD0
:100970003B1D4C1D5D1D80E090E0A0E0B0E0E61462
:10098000F7040805190520F481E090E0A0E0B0E04C
:10099000BA01A901480F591F6A1F7B1FAA0CBB1C73
:1009A000CC1CDD1C97FE08C081E090E0A0E0B0E028
:1009B000A82AB92ACA2ADB2A3196E032F10549F081
:1009C000660C771C881C991C56944794379427947E
:1009D000C3CFFA85EA892B893C898B859C85280FB2
:1009E000391F2E5F3F4F17C0CA0181709070892B4D
:1009F00061F016950795F794E79480E090E0A0E009
:100A0000B0E8E82AF92A0A2B1B2B769567955795AB
:100A100047952F5F3F4F77FDE7CF0CC0440F551F21
:100A2000661F771F17FD4160EE0CFF1C001F111F92
:100A300021503040403090E0590790E0690790E441
:100A4000790760F32B8F3C8FDB01CA018F779070A1
:100A5000A070B07080349105A105B10561F447FD27
:100A60000AC0E114F1040105110529F0405C5F4F53
:100A70006F4F7F4F40781A8EFE1711F081E08A8FFA
:100A80004D8F5E8F6F8F78A383E0898FCE0149965B
:100A90000E941606A096E2E10C94750FA8E0B0E063
:100AA000E4E5F5E00C94610F7B018C0161157105A3
:100AB0008105910519F482E0898360C083E0898310
:100AC0008EE1C82ED12CDC82CB82ED82FE820F8398
:100AD0001887C801B7010E94C705FC013197F7FFCD
:100AE0003BC0222733272E1B3F0B57016801022EE4
:100AF00004C0D694C794B794A7940A94D2F740E060
:100B000050E060E070E081E090E0A0E0B0E004C080
:100B1000880F991FAA1FBB1F2A95D2F70197A10919
:100B2000B1098E219F21A023B1230097A105B10512
:100B300021F041E050E060E070E04A295B296C2937
:100B40007D294D835E836F8378878EE190E08E1BD5
:100B50009F0B9C838B8312C0309781F00E2E04C0B4
:100B6000EE0CFF1C001F111F0A94D2F7ED82FE82CB
:100B70000F831887CE1ADF0ADC82CB821A82CE015D
:100B800001960E9416062896EAE00C947D0FEF92DB
:100B9000FF920F931F937B018C0180E0E81680E0A9
:100BA000F80681E0080780E0180788F48FEFE81660
:100BB000F1040105110531F028F088E090E0A0E093
:100BC000B0E017C080E090E0A0E0B0E012C080E0AC
:100BD000E81680E0F80680E0080781E0180728F0B2
:100BE00088E190E0A0E0B0E004C080E190E0A0E007
:100BF000B0E020E230E040E050E0281B390B4A0B27
:100C00005B0B04C016950795F794E7948A95D2F785
:100C1000F701E75DFE4F8081281B31094109510929
:100C2000C9011F910F91FF90EF900895DF92EF920D
:100C3000FF920F931F93FC01E480F58006811781DA
:100C4000D1808081823048F480E090E0A0E1B0E083
:100C5000E82AF92A0A2B1B2BA5C0843009F49FC06F
:100C6000823021F4EE24FF24870105C0E114F10451
:100C70000105110519F4E0E0F0E096C0628173818E
:100C80009FEF623879070CF05BC022E83FEF261B2C
:100C9000370B2A3131052CF020E030E040E050E005
:100CA0002AC0B801A701022E04C076956795579512
:100CB00047950A94D2F781E090E0A0E0B0E004C04C
:100CC000880F991FAA1FBB1F2A95D2F70197A10968
:100CD000B1098E219F21A023B1230097A105B10561
:100CE00021F081E090E0A0E0B0E09A01AB01282B78
:100CF000392B4A2B5B2BDA01C9018F779070A070DA
:100D0000B07080349105A105B10539F427FF09C001
:100D1000205C3F4F4F4F5F4F04C0215C3F4F4F4F10
:100D20005F4FE0E0F0E02030A0E03A07A0E04A07A3
:100D3000A0E45A0710F0E1E0F0E079018A0127C051
:100D40006038710564F5FB01E158FF4FD801C70118
:100D50008F779070A070B07080349105A105B105B7
:100D600039F4E7FE0DC080E490E0A0E0B0E004C0FC
:100D70008FE390E0A0E0B0E0E80EF91E0A1F1B1F11
:100D800017FF05C016950795F794E794319687E00D
:100D900016950795F794E7948A95D1F705C0EE2448
:100DA000FF248701EFEFF0E06E2F679566276795C8
:100DB000902F9F77D794DD24D7948E2F8695492F37
:100DC000462B582F5D29B701CA011F910F91FF9043
:100DD000EF90DF900895FC01DB0140815181228179
:100DE000622F6F7770E0221F2227221F9381892FA5
:100DF000880F822B282F30E0991F9927991F119671
:100E00009C93119721153105A9F5411551056105EF
:100E1000710511F482E037C082E89FEF13969C932E
:100E20008E9312979A01AB0167E0220F331F441F84
:100E3000551F6A95D1F783E08C930DC0220F331FA5
:100E4000441F551F12968D919C91139701971396ED
:100E50009C938E931297203080E0380780E04807FB
:100E600080E4580758F314962D933D934D935C936B
:100E7000179708952F3F310579F441155105610504
:100E8000710519F484E08C93089564FF03C081E038
:100E90008C9312C01C9210C02F57304013963C9375
:100EA0002E93129783E08C9387E0440F551F661FA3
:100EB000771F8A95D1F7706414964D935D936D9367
:100EC0007C93179708952F923F924F925F926F9263
:100ED0007F928F929F92AF92BF92CF92DF92EF92CA
:100EE000FF920F931F93DF93CF93CDB7DEB7619738
:100EF0000FB6F894DEBF0FBECDBF3C017F876E8773
:100F00006A01FC0117821682838181FD03C06FEFA5
:100F10007FEF6FC39E012F5F3F4F398B288BF3010B
:100F20002381EE85FF8523FD859123FF8191FF8736
:100F3000EE87882309F45AC3853251F4EE85FF8584
:100F400023FD859123FF8191FF87EE87853229F468
:100F500090E0B3010E94DB10E2CF982F10E08824CC
:100F600099241032B0F49B3269F09C3228F490320C
:100F700051F0933271F40BC09D3239F0903349F443
:100F8000116028C01260146025C0186023C0106171
:100F900021C017FD2AC0892F80538A3078F416FFAC
:100FA00006C0FAE09F9E902C1124980E13C03AE0E0
:100FB000839E802C1124880E10620CC09E3221F476
:100FC00016FD14C3106406C09C3611F4106802C0EC
:100FD000983659F4EE85FF8523FD959123FF919175
:100FE000FF87EE87992309F0BCCF892F8554833082
:100FF00020F4812F8061905E07C0892F8556833051
:1010000008F09FC1812F8F7E86FD02C076E0972E6B
:101010006FE3F62EF822953619F4F0E4FF2A07C0A4
:10102000963619F420E8F22A02C091109A94F7FE3D
:101030000AC03BE3391518F45CE3B52E02C0B92CA5
:10104000B39427E009C047E0491520F4BB2447E0EA
:10105000942EF7CF292DBB24C60104969D878C873B
:10106000F6016081718182819381AE014F5F5F4F94
:101070000B2D0E94900F6C010981202E332400FF5C
:1010800004C003FD02C01DE209C0F1FE02C01BE264
:1010900005C0F2FC02C010E001C010E2C1018C707A
:1010A0009070892BB9F1112311F483E001C084E021
:1010B000881510F088240AC0881AF3FC07C080E263
:1010C00090E0B3010E94DB108A94C9F7112329F044
:1010D000812F90E0B3010E94DB1023FE03C00CE8D7
:1010E00010E00EC000E910E00BC0E114F10409F0BB
:1010F000805290E0B3010E94DB100F5F1F4F05C0CC
:10110000EF2CFF24F0E1EF22FF24F80184918823E3
:1011100061F714C1F7FE12C0BC0C24FE04C08A8122
:10112000813309F4BA941B141CF0BB24B3942DC072
:10113000F8E0FB1550F538E0B32E27C0F6FC25C0CB
:10114000892D90E08C159D054CF02CEFC2162FEFE9
:10115000D20624F030E8F32A01C09A94992049F08D
:10116000E2E0F0E0EC0FFD1FE90DF11D808180331E
:10117000A1F3F7FE0AC0B92CB394892D90E0C816EC
:10118000D90614F0992401C09C18F7FC03C025E08F
:1011900030E009C01C141D041CF021E030E003C045
:1011A00096012F5F3F4F112311F02F5F3F4F992082
:1011B00029F0892D90E00196280F391F882D90E0A5
:1011C0002817390714F0882401C0821A4F2C55249F
:1011D000C20189709070892B39F008C080E290E0DC
:1011E000B3010E94DB108A948820C1F7112329F0F3
:1011F000812F90E0B3010E94DB1043FE07C008C0BE
:1012000080E390E0B3010E94DB108A948820C1F74C
:10121000F7FE46C08601D7FE02C000E010E076016E
:101220000894E11CF11CE01AF10A41E050E04C0F77
:101230005D1FE40EF51E26014B185108892D90E024
:10124000AA24BB24A81AB90A5FEF0F3F150729F497
:101250008EE290E0B3010E94DB10C016D10634F09C
:10126000401651061CF4F701808101C080E3015053
:1012700010400894E11CF11C0A151B052CF090E0AD
:10128000B3010E94DB10E0CF0C151D0539F49A81E3
:10129000963318F4953311F424FE81E390E04BC0AB
:1012A0008A81813309F00F7E90E0B3010E94DB1048
:1012B0009920A1F08EE290E0B3010E94DB1012E0D1
:1012C000E1E0F0E0EC0FFD1FE10FF11D1F5F8081F9
:1012D00090E0B3010E94DB109A9491F744FC03C0A4
:1012E00085E690E002C085E490E0B3010E94DB1047
:1012F000D7FC05C0C114D10441F404FF06C0D0944A
:10130000C194D108D3948DE201C08BE290E0B30187
:101310000E94DB1080E305C08F5F26EF3FEFC20E17
:10132000D31E3AE0C316D104BCF790E0B3010E948B
:10133000DB10C601C096B3010E94DB10CC84DD84B3
:1013400052C1933631F0933799F0933509F059C073
:1013500023C0F601808189835E010894A11CB11C21
:1013600022E030E0C20ED31E21E0E22EF12C12C0AA
:10137000F601A080B18016FD03C06FEF7FEF02C0C1
:10138000692D70E022E030E0C20ED31EC5010E943C
:101390008E107C011F7713C0F601A080B18016FD6E
:1013A00003C06FEF7FEF02C0692D70E022E030E0F4
:1013B000C20ED31EC5010E9483107C01106813FF6A
:1013C00007C01BC080E290E0B3010E94DB108A944A
:1013D000882D90E0E816F906A8F30FC0F50117FD77
:1013E000859117FF81915F0190E0B3010E94DB10AE
:1013F00081108A940894E108F108E114F10471F76E
:10140000F2C0943611F0993689F517FF08C0F6013D
:10141000208131814281538184E090E00AC0F6014D
:10142000808191819C01442737FD4095542F82E0B3
:1014300090E0C80ED91E9FE6F92EF12257FF09C091
:1014400050954095309521953F4F4F4F5F4F90E815
:10145000F92ACA01B901AE014F5F5F4F2AE030E0BF
:101460000E945611E82EE889EE1A41C0953721F402
:101470001F7E2AE030E01CC0197F9F3661F0903754
:1014800020F4983509F0B2C00FC0903739F0983782
:1014900009F0ACC004C028E030E00AC0106114FDBF
:1014A000146020E130E004C014FD166020E132E059
:1014B00017FF08C0F601608171818281938144E049
:1014C00050E008C0F60180819181BC0180E090E08D
:1014D00042E050E0C40ED51EAE014F5F5F4F0E9448
:1014E0005611E82E5889E51A8FE7F82EF122F6FEFC
:1014F0000BC08EEFF822E91438F4F4FE07C0F2FCBA
:1015000005C09FEEF92202C01E2D01C0192DF4FE68
:101510000DC0FE01EE0DF11D8081803319F4E9EE5E
:10152000FE2208C01F5FF2FE05C003C08F2D867823
:1015300009F01F5F0F2DF3FC14C0F0FE0FC018154B
:1015400010F09E2C0BC09E2C980C911A182D06C0E2
:1015500080E290E0B3010E94DB101F5F1815C0F31A
:1015600004C0181510F4811A01C0882404FF0FC0AC
:1015700080E390E0B3010E94DB1002FF1DC001FD7B
:1015800003C088E790E00EC088E590E00BC0802F94
:10159000867891F001FF02C08BE201C080E2F7FC87
:1015A0008DE290E0B3010E94DB1006C080E390E082
:1015B000B3010E94DB109A94E914C0F3EA94E1E0CD
:1015C000F0E0EC0FFD1FEE0DF11D808190E0B30106
:1015D0000E94DB10EE2091F706C080E290E0B3019C
:1015E0000E94DB108A948820C1F799CCF3016681B0
:1015F0007781CB0161960FB6F894DEBF0FBECDBFE9
:10160000CF91DF911F910F91FF90EF90DF90CF90DE
:10161000BF90AF909F908F907F906F905F904F9012
:101620003F902F900895FC0120FD08C023FD05C0C8
:1016300022FF02C073836283518340830895EF9237
:10164000FF920F931F9344FF02C033E011C046FF87
:1016500002C034E00DC0DB01FC01AA0FBB1FEE1F6E
:10166000FF1F1094D1F76A0F7B1F8E1F9F1F31E061
:10167000660F771F881F991F3150D1F77B018C01AE
:10168000E20EF11C011D111DA8019701B701CA014D
:101690001F910F91FF90EF9008950F931F93CF9399
:1016A000DF938C01C8010E949910EC0197FD08C0DE
:1016B0000E946810892BB1F7CE01B8010E943C113D
:1016C000CE01DF91CF911F910F9108958F929F923C
:1016D000AF92BF92DF92EF92FF920F931F93CF933F
:1016E000DF935C01EB014A01122F0E949910AC01BB
:1016F0008B3219F08D3251F41068219709F46DC0C6
:10170000C5010E949910AC0197FD67C06DEFD62E00
:10171000D1228D2D807301F54033F1F4219709F426
:1017200047C0C5010E949910AC0197FD41C082E0FD
:10173000D82A483711F0483559F480E4D82A21973F
:10174000B9F1C5010E949910AC0199232CF430C065
:10175000D6FC02C080E1D82AEE24FF248701242F82
:101760002053283088F0D4FC09C02A3068F0D6FE17
:1017700005C02F7D822F8151863028F0CA01B50126
:101780000E943C1112C02750C801B7014D2D0E9484
:101790001F0B7B018C0182E0D82A219761F0C501E3
:1017A0000E949910AC0197FFDACFD1FC04C015C09C
:1017B000EE24FF248701D7FE08C010950095F09411
:1017C000E094E11CF11C011D111DC401B801A70129
:1017D0002D2D0E94130B81E001C080E0DF91CF919D
:1017E0001F910F91FF90EF90DF90BF90AF909F906F
:1017F0008F9008956F927F928F929F92AF92BF9237
:10180000CF92DF92EF92FF920F931F93DF93CF93CC
:10181000CDB7DEB7A0970FB6F894DEBF0FBECDBF31
:101820005C016B018A017901FE01319680E2DF01E2
:101830001D928A95E9F770E030E060E040E050E00A
:101840003F01A1E0B0E0F5018381F70183FD25911F
:1018500083FF21917F01222309F481C02E3519F4E1
:101860004115510569F1872F90E08417950744F4DD
:101870002D3551F12D3221F4332329F431E021C0EB
:10188000332309F4622F322F832F86958695869510
:10189000F301E80FF11D832F87704D0102C0880C02
:1018A000991C8A95E2F7208128292083361711F4A4
:1018B00030E007C0361710F43F5FE6CF3150E4CF79
:1018C00071E04F5F5F4FBFCF332319F08E8180628D
:1018D0008E83772359F0FE0131969E012F5D3F4F95
:1018E000808180958193E217F307D1F7992493942F
:1018F0003E010894611C711CC5010E949910AC0145
:1019000097FD25C0869586958695F301E80FF11D14
:10191000808190E09A012770307002C0959587957C
:101920002A95E2F780FD05C0CA01B5010E943C116D
:101930000EC00115110519F0D8014D938D010894C1
:10194000C108D1089924C114D104B1F602C099206C
:1019500031F40115110529F0F801108202C0EE24BE
:10196000FF24C701A0960FB6F894DEBF0FBECDBF0F
:10197000CF91DF911F910F91FF90EF90DF90CF906B
:10198000BF90AF909F908F907F906F9008952F920F
:101990003F925F926F927F928F929F92AF92BF928F
:1019A000CF92DF92EF92FF920F931F93CF93DF932B
:1019B0003C017B011A010E949910EC018B3239F035
:1019C0008D3211F0552411C0B0E85B2E01C05524B2
:1019D0000894E108F108E114F10409F418C1C30105
:1019E0000E949910EC0197FD12C1CE010E94701067
:1019F0008936910521F08E36910599F51DC009EAC9
:101A000010E01CC00894E108F108E114F10471F041
:101A1000C3010E949910EC0197FD08C00E9470104C
:101A2000D81661F0CE01B3010E943C1120E00C3ABF
:101A3000120709F0ECC008C006EA10E0F8010F5FD9
:101A40001F4FD490DD20F1F6095A104029F080E0B4
:101A500090E0A0E8BFE7CFC080E090E0A0ECBFE757
:101A6000CAC0CC24DD24882499245401AE014053FB
:101A7000242F4A3038F552E0552A852D90E0AC01EC
:101A80004870507052FE06C0452B11F50894C11CD9
:101A9000D11C1EC0452B19F00894C108D108C501FE
:101AA000B40140E20E941F0B4B015C0188E98816DB
:101AB00089E9980689E9A80689E1B80648F094E022
:101AC000592A06C04E3F81F453FC0EC0E8E05E2A5E
:101AD0000894E108F108E114F10431F0C3010E9417
:101AE0009910EC0197FFC2CF51FE91C0C53619F095
:101AF000C53409F046C00894E108F108E114F10486
:101B000009F485C0C3010E949910EC0197FD7FC0C4
:101B10008B3221F08D3269F4F0E15F2A0894E108FC
:101B2000F108E114F10409F472C0C3010E94991094
:101B3000EC01CE01C0970A9708F069C000E010E000
:101B4000B801882777FD8095982FAE014053242F48
:101B500040E20E941F0B8B010894E108F108E11498
:101B6000F10439F0C3010E949910EC01C0970A9763
:101B700038F3B80154FE03C0709561957F4FC60ECF
:101B8000D71EEF2831F0D7FD04C0CE01B3010E946B
:101B90003C11C501B4010E944E05D7FE0DC0A5EC55
:101BA000EA2EA0E0FA2ED094C194D108D394C0E2DA
:101BB000D0E000E010E00EC0FDEDEF2EF0E0FF2ED3
:101BC000F6CFF70125913591459154910E94540427
:101BD000CC1ADD0ACC16DD06A0F7D695C7950F5FA7
:101BE0001F4F0630110529F0ECEFFFEFEE0EFF1E40
:101BF000F1CFDC01CB0157FCB0582114310429F09E
:101C0000F10180839183A283B38381E001C080E0EE
:101C1000DF91CF911F910F91FF90EF90DF90CF90C8
:101C2000BF90AF909F908F907F906F905F903F900C
:101C30002F9008955F926F927F928F929F92AF92B2
:101C4000BF92CF92DF92EF92FF920F931F93CF93A9
:101C5000DF934C015B013A01FC0117821682552487
:101C600004C1812F90E00E946810892B21F0C401EB
:101C70000E944D0BFAC0153249F4F501F3FC659151
:101C8000F3FE61915F01653269F415E2C4010E94BF
:101C9000991097FDF6C0181709F4E7C0B4010E9427
:101CA0003C11F4C06A3219F0162F00E006C0F3FCB4
:101CB0001591F3FE11915F0101E0CC24DD240EC0EB
:101CC0000260B60180E090E040E20E941F0B6B01D1
:101CD000F501F3FC1591F3FE11915F01212F2053C3
:101CE0002A3070F301FD04C0CC24CA94DC2C04C05B
:101CF000C114D10409F4CAC0183621F01C3699F475
:101D0000F5010BC0F501F3FC6591F3FE61916836B6
:101D100019F05F01162F07C008600460F3FC1591ED
:101D2000F3FE11915F01112309F4B0C084E990E042
:101D3000612F70E00E947810892B09F4A7C0802FD2
:101D400000FF03C0EE24FF2407C0F301E080F18010
:101D500022E030E0620E731E1E3651F4F40146811B
:101D6000578160E070E0C701202F0E94130B7DC0F7
:101D70001336B9F481FD03C011E0C12ED12CC4018A
:101D80000E94991097FD7DC0E114F10419F0F7014C
:101D900081937F010894C108D108C114D10479F757
:101DA00062C01B3559F4C401B601A70195010E9418
:101DB000FA0B5C01009709F056C050C0C4010E94A4
:101DC0004D0B97FD5EC01F36D1F1103738F4143635
:101DD000A1F11936A9F11835D1F52DC0133751F0FD
:101DE000143718F4103799F526C0153731F1183724
:101DF00071F521C0C4010E949910EC0197FD15C036
:101E00000E946810892B29F0CE01B4010E943C1178
:101E10000CC0E114F10419F0F701C1937F0108949B
:101E2000C108D108C114D10429F7E114F104D9F093
:101E3000F701108218C0006403C0006201C0006195
:101E4000C401B601A701202F0E94660B05C0C40182
:101E5000B601A7010E94C70C882329F4F4018381ED
:101E6000807379F413C000FF5394F401F380F501FB
:101E7000F3FC1591F3FE11915F01112309F0F1CEEE
:101E800005C0552019F42FEF3FEF02C0252D30E09B
:101E9000C901DF91CF911F910F91FF90EF90DF90DB
:101EA000CF90BF90AF909F908F907F906F905F90FA
:101EB00008952F923F924F925F926F927F928F92EE
:101EC0009F92AF92BF92CF92DF92EF92FF920F93C9
:101ED0001F93CF93DF93CDB7DEB7CA1BDB0B0FB6D3
:101EE000F894DEBF0FBECDBF09942A883988488890
:101EF0005F846E847D848C849B84AA84B984C88426
:101F0000DF80EE80FD800C811B81AA81B981CE0F1C
:101F1000D11D0FB6F894DEBF0FBECDBFED01089501
:101F2000283008F027E03327DA01990F311D87FDAB
:101F3000916000966105710539F432602E5F3D9322
:101F400030E32A95E1F708959F3F30F0803871051E
:101F5000610509F03C5F3C5F3D93913008F080687B
:101F6000911DDF93CF931F930F93FF92EF92192F41
:101F7000987F9695E92F96959695E90FFF27E55C52
:101F8000FE4F99273327EE24FF24A701E701059090
:101F90000894079428F4360FE71EF81E491F511DB8
:101FA000660F771F881F991F0694A1F70590079465
:101FB00028F4E70EF81E491F561FC11D770F881F12
:101FC000991F661F0694A1F70590079428F4F80E50
:101FD000491F561FC71FD11D880F991F661F771FE6
:101FE0000694A1F70590079420F4490F561FC71FC8
:101FF000D81F990F661F771F881F0694A9F7849131
:102000001095177041F0D695C79557954795F79459
:10201000E7941A95C1F7E1EEF0E0689415901591F8
:1020200035916591959105907FE27395E118F10ADC
:10203000430B560BC90BD009C0F7E10CF11E431F2F
:10204000561FC91FD01D7EF4703311F48A95E6CF58
:10205000E894015030F0080F0AF40027021708F442
:10206000202F2395022F7A3328F079E37D932A9548
:10207000E9F710C07D932A9589F6069497956795A0
:10208000379517951794E118F10A430B560BC90BB6
:10209000D00998F023957E9173957A3308F070E318
:1020A0007C932013B8F77E9170617D9330F0839517
:1020B00071E37D9370E32A95E1F71124EF90FF908F
:1020C0000F911F91CF91DF91992787FD90950895EA
:1020D00091114AC1803219F089508550D0F7089586
:1020E0009111089581548A5108F4805E855A0895AB
:1020F000FC010590061621F00020D9F7C0010895D3
:102100003197CF010895FC01059061507040011096
:10211000D8F7809590958E0F9F1F0895FC01615010
:10212000704001900110D8F7809590958E0F9F1FF9
:102130000895CF93DF93EC014B8140FF1AC046FF17
:102140000AC04F7B4B838E819F8101969F838E8334
:102150008A81282F2BC042FF13C0E881F98180813A
:10216000282F332727FD30952115310529F44062AA
:102170004B832FEF3FEF1BC03196F983E88311C0EB
:10218000EA85FB85CE0109959C0197FF0AC09B81DA
:102190002F5F3F4F11F080E201C080E1892B8B83DC
:1021A000E8CF8E819F8101969F838E8330E0C901A5
:1021B000DF91CF9108950F931F93CF93DF938C01FD
:1021C000EB018B8181FF1BC082FF0DC02E813F81FF
:1021D0008C819D812817390764F4E881F981019386
:1021E000F983E88306C0E885F985802F0995892B56
:1021F00031F48E819F8101969F838E8302C00FEF01
:102200001FEFC801DF91CF911F910F9108950F9398
:102210001F93CF93DF938C01E0912D02F0912E025A
:10222000838181FF21C0C0E0D0E00DC0E0912D028C
:10223000F0912E0220853185BF01F9010995892B86
:1022400011F0CFEFDFEFF80181918F01882371F753
:10225000E0912D02F0912E02208531858AE0BF01A8
:10226000F9010995892B11F0CFEFDFEFCE01DF9156
:10227000CF911F910F9108959C01FB01838180FFF5
:1022800011C086FD0FC09FEF2F3F390759F0228301
:1022900080648F7D8383868197810197978386836E
:1022A00030E002C02FEF3FEFC9010895FA01AA27DD
:1022B000283051F1203181F1E8946F936E7F6E5F89
:1022C0007F4F8F4F9F4FAF4FB1E03ED0B4E03CD037
:1022D000670F781F891F9A1FA11D680F791F8A1F1A
:1022E000911DA11D6A0F711D811D911DA11D20D081
:1022F00009F468943F912AE0269F11243019305D3B
:102300003193DEF6CF010895462F4770405D41932B
:10231000B3E00FD0C9F7F6CF462F4F70405D4A3378
:1023200018F0495D31FD4052419302D0A9F7EACF40
:10233000B4E0A6959795879577956795BA95C9F76F
:1023400000976105710508959B01AC010A2E069462
:102350005795479537952795BA95C9F7620F731F1B
:10236000841F951FA01D0895992788270895F89424
:02237000FFCF9D
:1023720053746172742D2D2D2D2D2D2D2D2D2D2D5E
:102382002D2D00000000030000000060026E02001C
:10239200000000000000000000000102020303032D
:1023A20003040404040404040405050505050505E5
:1023B20005050505050505050506060606060606C4
:1023C20006060606060606060606060606060606AB
:1023D2000606060606060606060707070707070794
:1023E200070707070707070707070707070707077B
:1023F200070707070707070707070707070707076B
:10240200070707070707070707070707070707075A
:102412000707070707070707070808080808080843
:10242200080808080808080808080808080808082A
:10243200080808080808080808080808080808081A
:10244200080808080808080808080808080808080A
:1024520008080808080808080808080808080808FA
:1024620008080808080808080808080808080808EA
:1024720008080808080808080808080808080808DA
:1024820008080808080808080808080808080808CA
:0A24920008080808080808080800F8
:00000001FF
