:100000000C9446000C9465000C9465000C946500FB
:100010000C9465000C9465000C9465000C946500CC
:100020000C9465000C9465000C9465000C946500BC
:100030000C9465000C9465000C9465000C944F01C1
:100040000C9465000C9465000C9465000C9465009C
:100050000C9465000C9465000C9465000C9465008C
:100060000C9465000C9465000C9465000C9465007C
:100070000C9465000C9465000C9465000C9465006C
:100080000C9465000C9465000C94650011241FBE4F
:10009000CFEFD0E1DEBFCDBF11E0A0E0B1E0ECECEE
:1000A000F8E000E00BBF02C007900D92AA31B10743
:1000B000D9F711E0AAE1B1E001C01D92A633B10762
:1000C000E1F70E9467000C9464040C9400000E9405
:1000D000F70180E091E00E942F04FBCF1F93182FBF
:1000E0008A3019F48DE00E946E005D9BFECF1CB932
:1000F00080E090E01F9108951F93BC015F9BFECFAD
:100100001CB1812F0E946E00812F90E01F910895F5
:10011000382F843010F081E00895483010F082E0EC
:100120000895822F90E002C0880F991F4A95E2F748
:10013000282F313089F0313028F03230B9F03330A7
:10014000F1F41FC08AB3862B8ABB8BB3262360953C
:100150008623282B2BBB13C087B3862B87BB88B382
:10016000262360958623282B28BB09C084B3862BC1
:1001700084BB85B3262360958623282B25BB80E08E
:10018000089582B1862B82B983B126236095862398
:10019000282B23B980E00895F901843010F081E024
:1001A0000895483010F082E008958130B9F0813030
:1001B00028F0823019F18330C1F539C08AB3882321
:1001C00029F09AB3862F8095892305C08AB38823A6
:1001D00019F4862F80958ABB89B31FC087B3882303
:1001E00029F097B3862F8095892305C087B388238C
:1001F00019F4862F809587BB86B30FC084B38823FC
:1002000029F094B3862F8095892305C084B3882371
:1002100019F4862F809584BB83B3862390E002C0B7
:10022000959587954A95E2F7808380E0089582B19D
:10023000882329F092B1862F8095892305C082B149
:10024000882319F4862F809582B981B1862390E0A6
:1002500002C0959587954A95E2F7808380E00895DE
:1002600012BE82E087BF88ED81BF83B78A6083BFFB
:1002700010922F0180E0089520912F012A3010F074
:1002800081E00895E22FF0E0EE0FFF1FE65EFE4FE3
:10029000918380832F5F20932F0180E008951F9228
:1002A0000F920FB60F920BB60F9211241F932F933C
:1002B0003F934F935F936F937F938F939F93AF93EE
:1002C000BF93EF93FF9310E00BC0E12FF0E0EE0F30
:1002D000FF1FE65EFE4F0190F081E02D09951F5F44
:1002E00080912F01181788F3FF91EF91BF91AF9183
:1002F0009F918F917F916F915F914F913F912F913E
:100300001F910F900BBE0F900FBE0F901F9018956E
:10031000DF92EF92FF920F931F93CF93DF93082FFB
:10032000D62EE72E813210F081E02AC00E948C0286
:100330008B3A29F50E948C028B3A09F50E948C02B7
:100340008B3AE9F40E948C02F82E182F8D2D9E2DE9
:100350009C01E90104C00E948C028993180F9E0140
:100360002D192017C0F30E948C02F01611F083E0C3
:1003700007C0811711F480E003C084E001C082E06F
:10038000DF91CF911F910F91FF90EF90DF90089533
:10039000EF92FF920F931F93CF93DF93082F7B0170
:1003A000813210F081E01CC08AEA0E9488028AEA49
:1003B0000E9488028AEA0E948802802F0E94880296
:1003C000102FE70105C088810E9488028991180FCB
:1003D0009E012E192017B8F3812F0E94880280E019
:1003E000DF91CF911F910F91FF90EF9008951092A0
:1003F000900091E199B98AB188618AB9E5E9F0E0A4
:100400008081866080831092980090939900EAE939
:10041000F0E0808188618083EDE9F0E08081866092
:1004200080838CE091E0909333018093320190932C
:1004300031018093300187B3806E87BB80E00E94DA
:10044000290280E0089590E0883008F091E0892F3B
:100450000895982F883010F081E0089588B3929520
:10046000990F907E8F71892B88BB80E00895982F1B
:1004700080919B0085FFFCCF90939C0083EB92E0E2
:100480000197F1F7089580919B0087FFFCCF809141
:100490009C0008958FB9779BFECF8FB108951FB848
:1004A000779BFECF8FB108951F93162F0E942902CC
:1004B0008DE393E00197F1F780919B0085FFFCCFDE
:1004C00010939C0083EB92E00197F1F780E01F917D
:1004D0000895CF93DF93EB010E9429028DE393E00F
:1004E0000197F1F720E030E008C02F5F3F4F8FEF1A
:1004F0002F3F380711F481E008C080919B0087FFEF
:10050000F4CF80919C00888380E0DF91CF910895A3
:100510005D9BFECF8CB908955F9BFECF8CB1089593
:1005200084E980937400089584EA80937400809134
:10053000740087FFFCCF80917100887F883011F4B0
:1005400080E0089584E98093740081E0089584E94F
:1005500080937400089584EA8093740080917400FD
:1005600087FFFCCF80917100887F803111F480E09B
:10057000089584E98093740082E0089590E0880FE4
:10058000991F8093730084E88093740080917400B5
:1005900087FFFCCF80917100887F883119F084E952
:1005A000809374000895880F8F5F8093730084E8B0
:1005B000809374008091740087FFFCCF809171005C
:1005C000887F803419F084E98093740008958093C3
:1005D000730084E8809374008091740087FFFCCFDF
:1005E00080917100887F883219F084E980937400CB
:1005F000089584EC809374008091740087FFFCCF91
:1006000080917100887F803519F084E980937400AF
:1006100080917300089584E8809374008091740041
:1006200087FFFCCF80917100887F883519F084E9BD
:10063000809374000895FF920F931F93182F062F35
:10064000F42E0E949402812F0E94BE02802F0E94ED
:10065000E7028F2D0E94E70284E9809374001F91C6
:100660000F91FF9008950F931F93082F162F0E944C
:100670009402802F0E94BE02812F0E94E7020E94F6
:10068000AB02802F0E94D3020E94F902182F0E9411
:100690000B0384E980937400812F1F910F910895BB
:1006A000809370000895EF92FF920F931F93182F7D
:1006B000062FF72EE42E0E949402813009F441C0E7
:1006C000812F90E0880F991F90708093730084E8C9
:1006D000809374008091740087FFFCCF809171003B
:1006E000887F883139F4802F9F2D9C01F90190E09B
:1006F00024E81AC084E98093740083E022C08081DA
:1007000080937300209374008091740087FFFCCF66
:10071000809171003196887F883229F084E9809336
:10072000740084E00EC09F5F9E1548F381E08E1533
:1007300020F484E98093740003C081E080932E014B
:1007400080E01F910F91FF90EF9008950F931F93FA
:10075000CF93DF93082FEB01142F80912E0181306E
:1007600041F40E94AB02823009F474C010922E0151
:1007700002C00E949402813009F46CC0802F90E086
:10078000880F991F81608093730084E880937400C0
:100790008091740087FFFCCF80917100887F803446
:1007A00029F084E98093740085E054C01230D0F1C0
:1007B00040E0212F30E02150304054EC17C05093DE
:1007C00074008091740087FFFCCF80917100887F56
:1007D000803529F084E98093740086E03BC08091E5
:1007E0007300FE01E40FF11D80834F5F842F90E0C2
:1007F0008217930724F384E8809374008091740037
:1008000087FFFCCF80917100887F883529F084E9CB
:100810008093740087E01EC080917300C10FD11DCA
:10082000219713C084E8809374008091740087FF3F
:10083000FCCF80917100887F883529F084E980930E
:10084000740088E007C080917300888384E98093F6
:10085000740080E0DF91CF911F910F9108950F9365
:100860001F93CF93DF938C01E0913201F09133011C
:10087000838181FF21C0C0E0D0E00DC0E091320152
:10088000F091330120853185BF01F9010995892B4C
:1008900011F0CFEFDFEFF80181918F01882371F71D
:1008A000E0913201F0913301208531858AE0BF016A
:1008B000F9010995892B11F0CFEFDFEFCE01DF9120
:0C08C000CF911F910F910895F894FFCF85
:1008CC0048656C6C6F20576F726C640000000003FD
:0A08DC00000000006E007C00000028
:00000001FF
